{
  "contractName": "Netflix",
  "abi": [
    {
      "constant": false,
      "inputs": [
        {
          "internalType": "string",
          "name": "_name",
          "type": "string"
        },
        {
          "internalType": "string",
          "name": "_description",
          "type": "string"
        },
        {
          "internalType": "uint256",
          "name": "_price",
          "type": "uint256"
        },
        {
          "internalType": "uint256",
          "name": "_selling_type",
          "type": "uint256"
        }
      ],
      "name": "listItem",
      "outputs": [],
      "payable": false,
      "stateMutability": "nonpayable",
      "type": "function"
    },
    {
      "constant": true,
      "inputs": [],
      "name": "viewAvailItems",
      "outputs": [
        {
          "internalType": "string",
          "name": "",
          "type": "string"
        }
      ],
      "payable": false,
      "stateMutability": "view",
      "type": "function"
    },
    {
      "constant": false,
      "inputs": [
        {
          "internalType": "uint256",
          "name": "listing_id",
          "type": "uint256"
        },
        {
          "internalType": "string",
          "name": "_public_key",
          "type": "string"
        }
      ],
      "name": "buyNormalItem",
      "outputs": [],
      "payable": true,
      "stateMutability": "payable",
      "type": "function"
    },
    {
      "constant": true,
      "inputs": [
        {
          "internalType": "uint256",
          "name": "bid",
          "type": "uint256"
        }
      ],
      "name": "get_hash",
      "outputs": [
        {
          "internalType": "bytes32",
          "name": "",
          "type": "bytes32"
        }
      ],
      "payable": false,
      "stateMutability": "pure",
      "type": "function"
    },
    {
      "constant": false,
      "inputs": [
        {
          "internalType": "uint256",
          "name": "listing_id",
          "type": "uint256"
        },
        {
          "internalType": "bytes32",
          "name": "hashed_bid",
          "type": "bytes32"
        }
      ],
      "name": "place_bid",
      "outputs": [],
      "payable": false,
      "stateMutability": "nonpayable",
      "type": "function"
    },
    {
      "constant": false,
      "inputs": [
        {
          "internalType": "uint256",
          "name": "listing_id",
          "type": "uint256"
        }
      ],
      "name": "close_bidding",
      "outputs": [],
      "payable": false,
      "stateMutability": "nonpayable",
      "type": "function"
    },
    {
      "constant": false,
      "inputs": [
        {
          "internalType": "uint256",
          "name": "listing_id",
          "type": "uint256"
        },
        {
          "internalType": "uint256",
          "name": "bid",
          "type": "uint256"
        }
      ],
      "name": "reveal_bid",
      "outputs": [],
      "payable": false,
      "stateMutability": "nonpayable",
      "type": "function"
    },
    {
      "constant": false,
      "inputs": [
        {
          "internalType": "uint256",
          "name": "listing_id",
          "type": "uint256"
        }
      ],
      "name": "close_revealing",
      "outputs": [],
      "payable": false,
      "stateMutability": "nonpayable",
      "type": "function"
    },
    {
      "constant": true,
      "inputs": [
        {
          "internalType": "uint256",
          "name": "listing_id",
          "type": "uint256"
        }
      ],
      "name": "get_winner",
      "outputs": [
        {
          "internalType": "address",
          "name": "",
          "type": "address"
        }
      ],
      "payable": false,
      "stateMutability": "view",
      "type": "function"
    },
    {
      "constant": true,
      "inputs": [
        {
          "internalType": "uint256",
          "name": "listing_id",
          "type": "uint256"
        }
      ],
      "name": "get_payable_amount",
      "outputs": [
        {
          "internalType": "uint256",
          "name": "",
          "type": "uint256"
        }
      ],
      "payable": false,
      "stateMutability": "view",
      "type": "function"
    },
    {
      "constant": false,
      "inputs": [
        {
          "internalType": "uint256",
          "name": "listing_id",
          "type": "uint256"
        },
        {
          "internalType": "string",
          "name": "_public_key",
          "type": "string"
        }
      ],
      "name": "buyAuctionItem",
      "outputs": [],
      "payable": true,
      "stateMutability": "payable",
      "type": "function"
    },
    {
      "constant": true,
      "inputs": [
        {
          "internalType": "uint256",
          "name": "listing_id",
          "type": "uint256"
        }
      ],
      "name": "get_public_key",
      "outputs": [
        {
          "internalType": "string",
          "name": "",
          "type": "string"
        }
      ],
      "payable": false,
      "stateMutability": "view",
      "type": "function"
    },
    {
      "constant": false,
      "inputs": [
        {
          "internalType": "string",
          "name": "message",
          "type": "string"
        },
        {
          "internalType": "uint256",
          "name": "listing_id",
          "type": "uint256"
        }
      ],
      "name": "send_encrypted_string",
      "outputs": [],
      "payable": true,
      "stateMutability": "payable",
      "type": "function"
    },
    {
      "constant": true,
      "inputs": [
        {
          "internalType": "uint256",
          "name": "listing_id",
          "type": "uint256"
        }
      ],
      "name": "get_encrypted_string",
      "outputs": [
        {
          "internalType": "string",
          "name": "",
          "type": "string"
        }
      ],
      "payable": false,
      "stateMutability": "view",
      "type": "function"
    }
  ],
  "bytecode": "0x6080604052600080556000600155600060025534801561001e57600080fd5b506149958061002e6000396000f3fe6080604052600436106100dd5760003560e01c80637a309eb21161007f578063a7e05d8d11610059578063a7e05d8d146105fa578063bc0a3f5c1461063f578063ec4ceeea146106f3578063f617f95a14610866576100dd565b80637a309eb2146104c657806385844959146105015780638d2ddf0e14610546576100dd565b80634c7aa7a6116100bb5780634c7aa7a61461025d5780634ce000bf146103225780635dd6db76146103e75780637707ca0214610477576100dd565b806315233c78146100e2578063243dc4091461011d5780634736862e14610198575b600080fd5b3480156100ee57600080fd5b5061011b6004803603602081101561010557600080fd5b81019080803590602001909291905050506108b5565b005b34801561012957600080fd5b506101566004803603602081101561014057600080fd5b8101908080359060200190929190505050611032565b604051808273ffffffffffffffffffffffffffffffffffffffff1673ffffffffffffffffffffffffffffffffffffffff16815260200191505060405180910390f35b61025b600480360360408110156101ae57600080fd5b81019080803590602001906401000000008111156101cb57600080fd5b8201836020820111156101dd57600080fd5b803590602001918460018302840111640100000000831117156101ff57600080fd5b91908080601f016020809104026020016040519081016040528093929190818152602001838380828437600081840152601f19601f8201169050808301925050505050505091929192908035906020019092919050505061122c565b005b6103206004803603604081101561027357600080fd5b81019080803590602001909291908035906020019064010000000081111561029a57600080fd5b8201836020820111156102ac57600080fd5b803590602001918460018302840111640100000000831117156102ce57600080fd5b91908080601f016020809104026020016040519081016040528093929190818152602001838380828437600081840152601f19601f820116905080830192505050505050509192919290505050611559565b005b6103e56004803603604081101561033857600080fd5b81019080803590602001909291908035906020019064010000000081111561035f57600080fd5b82018360208201111561037157600080fd5b8035906020019184600183028401116401000000008311171561039357600080fd5b91908080601f016020809104026020016040519081016040528093929190818152602001838380828437600081840152601f19601f820116905080830192505050505050509192919290505050611896565b005b3480156103f357600080fd5b506103fc611bdb565b6040518080602001828103825283818151815260200191508051906020019080838360005b8381101561043c578082015181840152602081019050610421565b50505050905090810190601f1680156104695780820380516001836020036101000a031916815260200191505b509250505060405180910390f35b34801561048357600080fd5b506104b06004803603602081101561049a57600080fd5b8101908080359060200190929190505050612cdf565b6040518082815260200191505060405180910390f35b3480156104d257600080fd5b506104ff600480360360208110156104e957600080fd5b8101908080359060200190929190505050612ea6565b005b34801561050d57600080fd5b506105446004803603604081101561052457600080fd5b8101908080359060200190929190803590602001909291905050506130cc565b005b34801561055257600080fd5b5061057f6004803603602081101561056957600080fd5b81019080803590602001909291905050506134a3565b6040518080602001828103825283818151815260200191508051906020019080838360005b838110156105bf5780820151818401526020810190506105a4565b50505050905090810190601f1680156105ec5780820380516001836020036101000a031916815260200191505b509250505060405180910390f35b34801561060657600080fd5b5061063d6004803603604081101561061d57600080fd5b810190808035906020019092919080359060200190929190505050613785565b005b34801561064b57600080fd5b506106786004803603602081101561066257600080fd5b8101908080359060200190929190505050613b3d565b6040518080602001828103825283818151815260200191508051906020019080838360005b838110156106b857808201518184015260208101905061069d565b50505050905090810190601f1680156106e55780820380516001836020036101000a031916815260200191505b509250505060405180910390f35b3480156106ff57600080fd5b506108646004803603608081101561071657600080fd5b810190808035906020019064010000000081111561073357600080fd5b82018360208201111561074557600080fd5b8035906020019184600183028401116401000000008311171561076757600080fd5b91908080601f016020809104026020016040519081016040528093929190818152602001838380828437600081840152601f19601f820116905080830192505050505050509192919290803590602001906401000000008111156107ca57600080fd5b8201836020820111156107dc57600080fd5b803590602001918460018302840111640100000000831117156107fe57600080fd5b91908080601f016020809104026020016040519081016040528093929190818152602001838380828437600081840152601f19601f8201169050808301925050505050505091929192908035906020019092919080359060200190929190505050613eb3565b005b34801561087257600080fd5b5061089f6004803603602081101561088957600080fd5b81019080803590602001909291905050506144c6565b6040518082815260200191505060405180910390f35b6001600782815481106108c457fe5b9060005260206000209060100201600a01541161092c576040517f08c379a000000000000000000000000000000000000000000000000000000000815260040180806020018281038252602381526020018061493e6023913960400191505060405180910390fd5b6000600660003373ffffffffffffffffffffffffffffffffffffffff1673ffffffffffffffffffffffffffffffffffffffff1681526020019081526020016000205414156109e2576040517f08c379a00000000000000000000000000000000000000000000000000000000081526004018080602001828103825260148152602001807f596f7520617265206e6f7420612073656c6c657200000000000000000000000081525060200191505060405180910390fd5b600660003373ffffffffffffffffffffffffffffffffffffffff1673ffffffffffffffffffffffffffffffffffffffff1681526020019081526020016000205460078281548110610a2f57fe5b90600052602060002090601002016004015414610ab4576040517f08c379a00000000000000000000000000000000000000000000000000000000081526004018080602001828103825260198152602001807f4974656d206973206e6f74206c697374656420627920796f750000000000000081525060200191505060405180910390fd5b600160078281548110610ac357fe5b9060005260206000209060100201600b015414610b2b576040517f08c379a00000000000000000000000000000000000000000000000000000000081526004018080602001828103825260268152602001806147b86026913960400191505060405180910390fd5b600160078281548110610b3a57fe5b9060005260206000209060100201600c0181905550600260078281548110610b5e57fe5b9060005260206000209060100201600a01541415610c4f5760008060009050600191505b6001548211610c25578060078481548110610b9957fe5b9060005260206000209060100201600f016000848152602001908152602001600020541115610c185760078381548110610bcf57fe5b9060005260206000209060100201600f0160008381526020019081526020016000205490508160078481548110610c0257fe5b9060005260206000209060100201600701819055505b8180600101925050610b82565b8060078481548110610c3357fe5b906000526020600020906010020160030181905550505061102f565b600360078281548110610c5e57fe5b9060005260206000209060100201600a01541415610dc757600080600090506000809050600192505b6001548311610d9c578160078581548110610c9e57fe5b9060005260206000209060100201600f016000858152602001908152602001600020541115610d245781905060078481548110610cd757fe5b9060005260206000209060100201600f0160008481526020019081526020016000205491508260078581548110610d0a57fe5b906000526020600020906010020160070181905550610d8f565b8060078581548110610d3257fe5b9060005260206000209060100201600f016000858152602001908152602001600020541115610d8e5760078481548110610d6857fe5b9060005260206000209060100201600f0160008481526020019081526020016000205490505b5b8280600101935050610c87565b8060078581548110610daa57fe5b90600052602060002090601002016003018190555050505061102e565b600460078281548110610dd657fe5b9060005260206000209060100201600a0154141561102d576000806000905060008090506000600193505b6001548411610e8c57600060078681548110610e1957fe5b9060005260206000209060100201600f016000868152602001908152602001600020541115610e7f5760078581548110610e4f57fe5b9060005260206000209060100201600f016000858152602001908152602001600020548301925081806001019250505b8380600101945050610e01565b818381610e9557fe5b04905060006a084595161401484a00000090506000600195505b600154861161102657600060078881548110610ec757fe5b9060005260206000209060100201600f0160008881526020019081526020016000205411156110195760008360078981548110610f0057fe5b9060005260206000209060100201600f016000898152602001908152602001600020540310610f62578260078881548110610f3757fe5b9060005260206000209060100201600f01600088815260200190815260200160002054039050610f97565b60078781548110610f6f57fe5b9060005260206000209060100201600f01600087815260200190815260200160002054830390505b81811015611018578091508560078881548110610fb057fe5b90600052602060002090601002016007018190555060078781548110610fd257fe5b9060005260206000209060100201600f016000878152602001908152602001600020546007888154811061100257fe5b9060005260206000209060100201600301819055505b5b8580600101965050610eaf565b5050505050505b5b5b50565b600060016007838154811061104357fe5b9060005260206000209060100201600a0154116110ab576040517f08c379a000000000000000000000000000000000000000000000000000000000815260040180806020018281038252602381526020018061493e6023913960400191505060405180910390fd5b6001600783815481106110ba57fe5b9060005260206000209060100201600b01541461113f576040517f08c379a00000000000000000000000000000000000000000000000000000000081526004018080602001828103825260198152602001807f42696464696e67206973207374696c6c20676f696e67206f6e0000000000000081525060200191505060405180910390fd5b60016007838154811061114e57fe5b9060005260206000209060100201600c0154146111d3576040517f08c379a000000000000000000000000000000000000000000000000000000000815260040180806020018281038252601f8152602001807f52657665616c20506572696f64206973207374696c6c20676f696e67206f6e0081525060200191505060405180910390fd5b60036000600784815481106111e457fe5b906000526020600020906010020160070154815260200190815260200160002060009054906101000a900473ffffffffffffffffffffffffffffffffffffffff169050919050565b6000600660003373ffffffffffffffffffffffffffffffffffffffff1673ffffffffffffffffffffffffffffffffffffffff1681526020019081526020016000205414156112e2576040517f08c379a00000000000000000000000000000000000000000000000000000000081526004018080602001828103825260148152602001807f596f7520617265206e6f7420612073656c6c657200000000000000000000000081525060200191505060405180910390fd5b600660003373ffffffffffffffffffffffffffffffffffffffff1673ffffffffffffffffffffffffffffffffffffffff168152602001908152602001600020546007828154811061132f57fe5b906000526020600020906010020160040154146113b4576040517f08c379a00000000000000000000000000000000000000000000000000000000081526004018080602001828103825260198152602001807f4974656d206973206e6f74206c697374656420627920796f750000000000000081525060200191505060405180910390fd5b6001600782815481106113c357fe5b90600052602060002090601002016005015414611448576040517f08c379a00000000000000000000000000000000000000000000000000000000081526004018080602001828103825260138152602001807f4974656d206e6f7420626f75676874207965740000000000000000000000000081525060200191505060405180910390fd5b816007828154811061145657fe5b9060005260206000209060100201600901908051906020019061147a929190614623565b5060016007828154811061148a57fe5b90600052602060002090601002016006018190555060046000600783815481106114b057fe5b906000526020600020906010020160040154815260200190815260200160002060009054906101000a900473ffffffffffffffffffffffffffffffffffffffff1673ffffffffffffffffffffffffffffffffffffffff166108fc6007838154811061151757fe5b9060005260206000209060100201600301549081150290604051600060405180830381858888f19350505050158015611554573d6000803e3d6000fd5b505050565b60016007838154811061156857fe5b9060005260206000209060100201600a0154146115ed576040517f08c379a000000000000000000000000000000000000000000000000000000000815260040180806020018281038252601f8152602001807f54686973204974656d206973206c697374656420666f722061756374696f6e0081525060200191505060405180910390fd5b600782815481106115fa57fe5b9060005260206000209060100201600301543414611663576040517f08c379a000000000000000000000000000000000000000000000000000000000815260040180806020018281038252604481526020018061487c6044913960600191505060405180910390fd5b6000600560003373ffffffffffffffffffffffffffffffffffffffff1673ffffffffffffffffffffffffffffffffffffffff1681526020019081526020016000205414156117d857600160008154809291906001019190505550600154600560003373ffffffffffffffffffffffffffffffffffffffff1673ffffffffffffffffffffffffffffffffffffffff168152602001908152602001600020819055503360036000600154815260200190815260200160002060006101000a81548173ffffffffffffffffffffffffffffffffffffffff021916908373ffffffffffffffffffffffffffffffffffffffff16021790555060016007838154811061176657fe5b906000526020600020906010020160050181905550806007838154811061178957fe5b906000526020600020906010020160080190805190602001906117ad929190614623565b50600154600783815481106117be57fe5b906000526020600020906010020160070181905550611892565b6001600783815481106117e757fe5b906000526020600020906010020160050181905550806007838154811061180a57fe5b9060005260206000209060100201600801908051906020019061182e929190614623565b50600560003373ffffffffffffffffffffffffffffffffffffffff1673ffffffffffffffffffffffffffffffffffffffff168152602001908152602001600020546007838154811061187c57fe5b9060005260206000209060100201600701819055505b5050565b6001600783815481106118a557fe5b9060005260206000209060100201600a01541161190d576040517f08c379a000000000000000000000000000000000000000000000000000000000815260040180806020018281038252602381526020018061480a6023913960400191505060405180910390fd5b60016007838154811061191c57fe5b9060005260206000209060100201600b0154146119a1576040517f08c379a00000000000000000000000000000000000000000000000000000000081526004018080602001828103825260198152602001807f42696464696e67206973207374696c6c20676f696e67206f6e0000000000000081525060200191505060405180910390fd5b6001600783815481106119b057fe5b9060005260206000209060100201600c015414611a35576040517f08c379a000000000000000000000000000000000000000000000000000000000815260040180806020018281038252601f8152602001807f52657665616c20506572696f64206973207374696c6c20676f696e67206f6e0081525060200191505060405180910390fd5b6003600060078481548110611a4657fe5b906000526020600020906010020160070154815260200190815260200160002060009054906101000a900473ffffffffffffffffffffffffffffffffffffffff1673ffffffffffffffffffffffffffffffffffffffff163373ffffffffffffffffffffffffffffffffffffffff1614611b0a576040517f08c379a00000000000000000000000000000000000000000000000000000000081526004018080602001828103825260278152602001806148c06027913960400191505060405180910390fd5b60078281548110611b1757fe5b9060005260206000209060100201600301543414611b80576040517f08c379a000000000000000000000000000000000000000000000000000000000815260040180806020018281038252604481526020018061487c6044913960600191505060405180910390fd5b600160078381548110611b8f57fe5b9060005260206000209060100201600501819055508060078381548110611bb257fe5b90600052602060002090601002016008019080519060200190611bd6929190614623565b505050565b606080604051806020016040528060008152509050600080905060008090505b600780549050811015612bf057611c106146a3565b60078281548110611c1d57fe5b9060005260206000209060100201604051806101c001604052908160008201548152602001600182018054600181600116156101000203166002900480601f016020809104026020016040519081016040528092919081815260200182805460018160011615610100020316600290048015611cda5780601f10611caf57610100808354040283529160200191611cda565b820191906000526020600020905b815481529060010190602001808311611cbd57829003601f168201915b50505050508152602001600282018054600181600116156101000203166002900480601f016020809104026020016040519081016040528092919081815260200182805460018160011615610100020316600290048015611d7c5780601f10611d5157610100808354040283529160200191611d7c565b820191906000526020600020905b815481529060010190602001808311611d5f57829003601f168201915b505050505081526020016003820154815260200160048201548152602001600582015481526020016006820154815260200160078201548152602001600882018054600181600116156101000203166002900480601f016020809104026020016040519081016040528092919081815260200182805460018160011615610100020316600290048015611e505780601f10611e2557610100808354040283529160200191611e50565b820191906000526020600020905b815481529060010190602001808311611e3357829003601f168201915b50505050508152602001600982018054600181600116156101000203166002900480601f016020809104026020016040519081016040528092919081815260200182805460018160011615610100020316600290048015611ef25780601f10611ec757610100808354040283529160200191611ef2565b820191906000526020600020905b815481529060010190602001808311611ed557829003601f168201915b50505050508152602001600a8201548152602001600b8201548152602001600c8201548152602001600d82015481525050905060008160a00151148015611f3e57506000816101600151145b15612be4578280600101935050600181610140015114156122c75783611f6782600001516144f6565b82602001518360400151611f7e85606001516144f6565b6040516020018086805190602001908083835b60208310611fb45780518252602082019150602081019050602083039250611f91565b6001836020036101000a038019825116818451168082178552505050505050905001807f0a0a000000000000000000000000000000000000000000000000000000000000815250600201807f2a2a2a2a2a2a2a2a2a2a2a2a2a2a2a2a2a2a2a2a2a2a2a2a2a2a000000000000815250601a01807f0a00000000000000000000000000000000000000000000000000000000000000815250600101807f4c697374696e672049643a200000000000000000000000000000000000000000815250600c0185805190602001908083835b602083106120a55780518252602082019150602081019050602083039250612082565b6001836020036101000a038019825116818451168082178552505050505050905001807f0a00000000000000000000000000000000000000000000000000000000000000815250600101807f4e616d653a20000000000000000000000000000000000000000000000000000081525060060184805190602001908083835b602083106121465780518252602082019150602081019050602083039250612123565b6001836020036101000a038019825116818451168082178552505050505050905001807f0a00000000000000000000000000000000000000000000000000000000000000815250600101807f4465736372697074696f6e3a2000000000000000000000000000000000000000815250600d0183805190602001908083835b602083106121e757805182526020820191506020810190506020830392506121c4565b6001836020036101000a038019825116818451168082178552505050505050905001807f0a00000000000000000000000000000000000000000000000000000000000000815250600101807f50726963653a200000000000000000000000000000000000000000000000000081525060070182805190602001908083835b602083106122885780518252602082019150602081019050602083039250612265565b6001836020036101000a038019825116818451168082178552505050505050905001955050505050506040516020818303038152906040529350612be3565b600281610140015114156125c757836122e382600001516144f6565b826020015183604001516040516020018085805190602001908083835b602083106123235780518252602082019150602081019050602083039250612300565b6001836020036101000a038019825116818451168082178552505050505050905001807f0a0a000000000000000000000000000000000000000000000000000000000000815250600201807f2a2a2a2a2a2a2a2a2a2a2a2a2a2a2a2a2a2a2a2a2a2a2a2a2a2a000000000000815250601a01807f0a00000000000000000000000000000000000000000000000000000000000000815250600101807f4c697374696e672049643a200000000000000000000000000000000000000000815250600c0184805190602001908083835b6020831061241457805182526020820191506020810190506020830392506123f1565b6001836020036101000a038019825116818451168082178552505050505050905001807f0a00000000000000000000000000000000000000000000000000000000000000815250600101807f4e616d653a20000000000000000000000000000000000000000000000000000081525060060183805190602001908083835b602083106124b55780518252602082019150602081019050602083039250612492565b6001836020036101000a038019825116818451168082178552505050505050905001807f0a00000000000000000000000000000000000000000000000000000000000000815250600101807f4465736372697074696f6e3a2000000000000000000000000000000000000000815250600d0182805190602001908083835b602083106125565780518252602082019150602081019050602083039250612533565b6001836020036101000a038019825116818451168082178552505050505050905001807f0a0000000000000000000000000000000000000000000000000000000000000081525060010180614850602c9139602c019450505050506040516020818303038152906040529350612be2565b600381610140015114156128e457836125e382600001516144f6565b826020015183604001516040516020018085805190602001908083835b602083106126235780518252602082019150602081019050602083039250612600565b6001836020036101000a038019825116818451168082178552505050505050905001807f0a0a000000000000000000000000000000000000000000000000000000000000815250600201807f2a2a2a2a2a2a2a2a2a2a2a2a2a2a2a2a2a2a2a2a2a2a2a2a2a2a000000000000815250601a01807f0a00000000000000000000000000000000000000000000000000000000000000815250600101807f4c697374696e672049643a200000000000000000000000000000000000000000815250600c0184805190602001908083835b6020831061271457805182526020820191506020810190506020830392506126f1565b6001836020036101000a038019825116818451168082178552505050505050905001807f0a00000000000000000000000000000000000000000000000000000000000000815250600101807f4e616d653a20000000000000000000000000000000000000000000000000000081525060060183805190602001908083835b602083106127b55780518252602082019150602081019050602083039250612792565b6001836020036101000a038019825116818451168082178552505050505050905001807f0a00000000000000000000000000000000000000000000000000000000000000815250600101807f4465736372697074696f6e3a2000000000000000000000000000000000000000815250600d0182805190602001908083835b602083106128565780518252602082019150602081019050602083039250612833565b6001836020036101000a038019825116818451168082178552505050505050905001807f0a00000000000000000000000000000000000000000000000000000000000000815250600101807f41756374696f6e20547970653a205669636b7265792061756374696f6e000000815250601d019450505050506040516020818303038152906040529350612be1565b60048161014001511415612be0578361290082600001516144f6565b826020015183604001516040516020018085805190602001908083835b60208310612940578051825260208201915060208101905060208303925061291d565b6001836020036101000a038019825116818451168082178552505050505050905001807f0a0a000000000000000000000000000000000000000000000000000000000000815250600201807f2a2a2a2a2a2a2a2a2a2a2a2a2a2a2a2a2a2a2a2a2a2a2a2a2a2a000000000000815250601a01807f0a00000000000000000000000000000000000000000000000000000000000000815250600101807f4c697374696e672049643a200000000000000000000000000000000000000000815250600c0184805190602001908083835b60208310612a315780518252602082019150602081019050602083039250612a0e565b6001836020036101000a038019825116818451168082178552505050505050905001807f0a00000000000000000000000000000000000000000000000000000000000000815250600101807f4e616d653a20000000000000000000000000000000000000000000000000000081525060060183805190602001908083835b60208310612ad25780518252602082019150602081019050602083039250612aaf565b6001836020036101000a038019825116818451168082178552505050505050905001807f0a00000000000000000000000000000000000000000000000000000000000000815250600101807f4465736372697074696f6e3a2000000000000000000000000000000000000000815250600d0182805190602001908083835b60208310612b735780518252602082019150602081019050602083039250612b50565b6001836020036101000a038019825116818451168082178552505050505050905001807f0a00000000000000000000000000000000000000000000000000000000000000815250600101806148e76023913960230194505050505060405160208183030381529060405293505b5b5b5b5b50600181019050611bfb565b5060008114612cbb57816040516020018082805190602001908083835b60208310612c305780518252602082019150602081019050602083039250612c0d565b6001836020036101000a038019825116818451168082178552505050505050905001807f0a00000000000000000000000000000000000000000000000000000000000000815250600101807f2a2a2a2a2a2a2a2a2a2a2a2a2a2a2a2a2a2a2a2a2a2a2a2a2a2a2a0000000000815250601b019150506040516020818303038152906040529150612cd7565b6040518060600160405280602c81526020016147de602c913991505b819250505090565b6000600160078381548110612cf057fe5b9060005260206000209060100201600a015411612d58576040517f08c379a000000000000000000000000000000000000000000000000000000000815260040180806020018281038252602381526020018061493e6023913960400191505060405180910390fd5b600160078381548110612d6757fe5b9060005260206000209060100201600b015414612dec576040517f08c379a00000000000000000000000000000000000000000000000000000000081526004018080602001828103825260198152602001807f42696464696e67206973207374696c6c20676f696e67206f6e0000000000000081525060200191505060405180910390fd5b600160078381548110612dfb57fe5b9060005260206000209060100201600c015414612e80576040517f08c379a000000000000000000000000000000000000000000000000000000000815260040180806020018281038252601f8152602001807f52657665616c20506572696f64206973207374696c6c20676f696e67206f6e0081525060200191505060405180910390fd5b60078281548110612e8d57fe5b9060005260206000209060100201600301549050919050565b600160078281548110612eb557fe5b9060005260206000209060100201600a015411612f1d576040517f08c379a000000000000000000000000000000000000000000000000000000000815260040180806020018281038252602381526020018061493e6023913960400191505060405180910390fd5b6000600660003373ffffffffffffffffffffffffffffffffffffffff1673ffffffffffffffffffffffffffffffffffffffff168152602001908152602001600020541415612fd3576040517f08c379a00000000000000000000000000000000000000000000000000000000081526004018080602001828103825260148152602001807f596f7520617265206e6f7420612073656c6c657200000000000000000000000081525060200191505060405180910390fd5b600660003373ffffffffffffffffffffffffffffffffffffffff1673ffffffffffffffffffffffffffffffffffffffff168152602001908152602001600020546007828154811061302057fe5b906000526020600020906010020160040154146130a5576040517f08c379a00000000000000000000000000000000000000000000000000000000081526004018080602001828103825260198152602001807f4974656d206973206e6f74206c697374656420627920796f750000000000000081525060200191505060405180910390fd5b6001600782815481106130b457fe5b9060005260206000209060100201600b018190555050565b6001600783815481106130db57fe5b9060005260206000209060100201600a015411613143576040517f08c379a000000000000000000000000000000000000000000000000000000000815260040180806020018281038252602381526020018061493e6023913960400191505060405180910390fd5b60006007838154811061315257fe5b9060005260206000209060100201600b0154146131ba576040517f08c379a000000000000000000000000000000000000000000000000000000000815260040180806020018281038252602381526020018061482d6023913960400191505060405180910390fd5b6000801b600783815481106131cb57fe5b9060005260206000209060100201600e016000600560003373ffffffffffffffffffffffffffffffffffffffff1673ffffffffffffffffffffffffffffffffffffffff16815260200190815260200160002054815260200190815260200160002054146132a0576040517f08c379a00000000000000000000000000000000000000000000000000000000081526004018080602001828103825260188152602001807f42696464657220616c726561647920686173206120626964000000000000000081525060200191505060405180910390fd5b6000600560003373ffffffffffffffffffffffffffffffffffffffff1673ffffffffffffffffffffffffffffffffffffffff1681526020019081526020016000205414156133fd57600160008154809291906001019190505550600154600560003373ffffffffffffffffffffffffffffffffffffffff1673ffffffffffffffffffffffffffffffffffffffff168152602001908152602001600020819055503360036000600154815260200190815260200160002060006101000a81548173ffffffffffffffffffffffffffffffffffffffff021916908373ffffffffffffffffffffffffffffffffffffffff160217905550600782815481106133a157fe5b9060005260206000209060100201600d016000815480929190600101919050555080600783815481106133d057fe5b9060005260206000209060100201600e01600060015481526020019081526020016000208190555061349f565b6007828154811061340a57fe5b9060005260206000209060100201600d0160008154809291906001019190505550806007838154811061343957fe5b9060005260206000209060100201600e016000600560003373ffffffffffffffffffffffffffffffffffffffff1673ffffffffffffffffffffffffffffffffffffffff168152602001908152602001600020548152602001908152602001600020819055505b5050565b60606000600660003373ffffffffffffffffffffffffffffffffffffffff1673ffffffffffffffffffffffffffffffffffffffff16815260200190815260200160002054141561355b576040517f08c379a00000000000000000000000000000000000000000000000000000000081526004018080602001828103825260148152602001807f596f7520617265206e6f7420612073656c6c657200000000000000000000000081525060200191505060405180910390fd5b600660003373ffffffffffffffffffffffffffffffffffffffff1673ffffffffffffffffffffffffffffffffffffffff16815260200190815260200160002054600783815481106135a857fe5b9060005260206000209060100201600401541461362d576040517f08c379a00000000000000000000000000000000000000000000000000000000081526004018080602001828103825260198152602001807f4974656d206973206e6f74206c697374656420627920796f750000000000000081525060200191505060405180910390fd5b60016007838154811061363c57fe5b906000526020600020906010020160050154146136c1576040517f08c379a00000000000000000000000000000000000000000000000000000000081526004018080602001828103825260138152602001807f4974656d206e6f7420626f75676874207965740000000000000000000000000081525060200191505060405180910390fd5b6060600783815481106136d057fe5b90600052602060002090601002016008018054600181600116156101000203166002900480601f0160208091040260200160405190810160405280929190818152602001828054600181600116156101000203166002900480156137755780601f1061374a57610100808354040283529160200191613775565b820191906000526020600020905b81548152906001019060200180831161375857829003601f168201915b5050505050905080915050919050565b60016007838154811061379457fe5b9060005260206000209060100201600a0154116137fc576040517f08c379a000000000000000000000000000000000000000000000000000000000815260040180806020018281038252602381526020018061493e6023913960400191505060405180910390fd5b60016007838154811061380b57fe5b9060005260206000209060100201600b015414613890576040517f08c379a00000000000000000000000000000000000000000000000000000000081526004018080602001828103825260198152602001807f42696464696e67206973207374696c6c20676f696e67206f6e0000000000000081525060200191505060405180910390fd5b60006007838154811061389f57fe5b9060005260206000209060100201600c015414613924576040517f08c379a00000000000000000000000000000000000000000000000000000000081526004018080602001828103825260178152602001807f52657665616c20506572696f6420697320636c6f73656400000000000000000081525060200191505060405180910390fd5b6000600560003373ffffffffffffffffffffffffffffffffffffffff1673ffffffffffffffffffffffffffffffffffffffff1681526020019081526020016000205414156139da576040517f08c379a00000000000000000000000000000000000000000000000000000000081526004018080602001828103825260138152602001807f596f7520617265206e6f7420612042757965720000000000000000000000000081525060200191505060405180910390fd5b600782815481106139e757fe5b9060005260206000209060100201600e016000600560003373ffffffffffffffffffffffffffffffffffffffff1673ffffffffffffffffffffffffffffffffffffffff1681526020019081526020016000205481526020019081526020016000205481604051602001808281526020019150506040516020818303038152906040528051906020012014613ac6576040517f08c379a000000000000000000000000000000000000000000000000000000000815260040180806020018281038252603481526020018061490a6034913960400191505060405180910390fd5b8060078381548110613ad457fe5b9060005260206000209060100201600f016000600560003373ffffffffffffffffffffffffffffffffffffffff1673ffffffffffffffffffffffffffffffffffffffff168152602001908152602001600020548152602001908152602001600020819055505050565b60606000600560003373ffffffffffffffffffffffffffffffffffffffff1673ffffffffffffffffffffffffffffffffffffffff168152602001908152602001600020541415613bf5576040517f08c379a00000000000000000000000000000000000000000000000000000000081526004018080602001828103825260138152602001807f596f7520617265206e6f7420612042757965720000000000000000000000000081525060200191505060405180910390fd5b600560003373ffffffffffffffffffffffffffffffffffffffff1673ffffffffffffffffffffffffffffffffffffffff1681526020019081526020016000205460078381548110613c4257fe5b90600052602060002090601002016007015414613cc7576040517f08c379a00000000000000000000000000000000000000000000000000000000081526004018080602001828103825260198152602001807f4974656d206973206e6f7420626f7567687420627920796f750000000000000081525060200191505060405180910390fd5b600160078381548110613cd657fe5b90600052602060002090601002016005015414613d5b576040517f08c379a00000000000000000000000000000000000000000000000000000000081526004018080602001828103825260138152602001807f4974656d206e6f7420626f75676874207965740000000000000000000000000081525060200191505060405180910390fd5b600160078381548110613d6a57fe5b90600052602060002090601002016006015414613def576040517f08c379a00000000000000000000000000000000000000000000000000000000081526004018080602001828103825260168152602001807f4974656d206e6f742064656c697665726564207965740000000000000000000081525060200191505060405180910390fd5b606060078381548110613dfe57fe5b90600052602060002090601002016009018054600181600116156101000203166002900480601f016020809104026020016040519081016040528092919081815260200182805460018160011615610100020316600290048015613ea35780601f10613e7857610100808354040283529160200191613ea3565b820191906000526020600020905b815481529060010190602001808311613e8657829003601f168201915b5050505050905080915050919050565b6001811015613f2a576040517f08c379a00000000000000000000000000000000000000000000000000000000081526004018080602001828103825260148152602001807f496e76616c69642053656c6c696e67205479706500000000000000000000000081525060200191505060405180910390fd5b6004811115613fa1576040517f08c379a00000000000000000000000000000000000000000000000000000000081526004018080602001828103825260148152602001807f496e76616c69642053656c6c696e67205479706500000000000000000000000081525060200191505060405180910390fd5b6000600660003373ffffffffffffffffffffffffffffffffffffffff1673ffffffffffffffffffffffffffffffffffffffff16815260200190815260200160002054141561428a576000808154809291906001019190505550600054600660003373ffffffffffffffffffffffffffffffffffffffff1673ffffffffffffffffffffffffffffffffffffffff1681526020019081526020016000208190555033600460008054815260200190815260200160002060006101000a81548173ffffffffffffffffffffffffffffffffffffffff021916908373ffffffffffffffffffffffffffffffffffffffff1602179055506007604051806101c00160405280600254815260200186815260200185815260200184815260200160005481526020016000815260200160008152602001600081526020016040518060400160405280600281526020017f4e4100000000000000000000000000000000000000000000000000000000000081525081526020016040518060400160405280600281526020017f4e41000000000000000000000000000000000000000000000000000000000000815250815260200183815260200160008152602001600081526020016000815250908060018154018082558091505090600182039060005260206000209060100201600090919290919091506000820151816000015560208201518160010190805190602001906141b8929190614712565b5060408201518160020190805190602001906141d5929190614712565b50606082015181600301556080820151816004015560a0820151816005015560c0820151816006015560e08201518160070155610100820151816008019080519060200190614225929190614712565b50610120820151816009019080519060200190614243929190614712565b5061014082015181600a015561016082015181600b015561018082015181600c01556101a082015181600d01555050506002600081548092919060010191905055506144c0565b6000600660003373ffffffffffffffffffffffffffffffffffffffff1673ffffffffffffffffffffffffffffffffffffffff1681526020019081526020016000205490506007604051806101c0016040528060025481526020018781526020018681526020018581526020018381526020016000815260200160008152602001600081526020016040518060400160405280600281526020017f4e4100000000000000000000000000000000000000000000000000000000000081525081526020016040518060400160405280600281526020017f4e41000000000000000000000000000000000000000000000000000000000000815250815260200184815260200160008152602001600081526020016000815250908060018154018082558091505090600182039060005260206000209060100201600090919290919091506000820151816000015560208201518160010190805190602001906143f1929190614712565b50604082015181600201908051906020019061440e929190614712565b50606082015181600301556080820151816004015560a0820151816005015560c0820151816006015560e0820151816007015561010082015181600801908051906020019061445e929190614712565b5061012082015181600901908051906020019061447c929190614712565b5061014082015181600a015561016082015181600b015561018082015181600c01556101a082015181600d0155505050600260008154809291906001019190505550505b50505050565b60008160405160200180828152602001915050604051602081830303815290604052805190602001209050919050565b6060600082141561453e576040518060400160405280600181526020017f3000000000000000000000000000000000000000000000000000000000000000815250905061461e565b600082905060005b60008214614568578080600101915050600a828161456057fe5b049150614546565b6060816040519080825280601f01601f19166020018201604052801561459d5781602001600182028038833980820191505090505b50905060008290508593505b6000841461461657600a84816145bb57fe5b0660300160f81b828260019003925082815181106145d557fe5b60200101907effffffffffffffffffffffffffffffffffffffffffffffffffffffffffffff1916908160001a905350600a848161460e57fe5b0493506145a9565b819450505050505b919050565b828054600181600116156101000203166002900490600052602060002090601f016020900481019282601f1061466457805160ff1916838001178555614692565b82800160010185558215614692579182015b82811115614691578251825591602001919060010190614676565b5b50905061469f9190614792565b5090565b604051806101c0016040528060008152602001606081526020016060815260200160008152602001600081526020016000815260200160008152602001600081526020016060815260200160608152602001600081526020016000815260200160008152602001600081525090565b828054600181600116156101000203166002900490600052602060002090601f016020900481019282601f1061475357805160ff1916838001178555614781565b82800160010185558215614781579182015b82811115614780578251825591602001919060010190614765565b5b50905061478e9190614792565b5090565b6147b491905b808211156147b0576000816000905550600101614798565b5090565b9056fe42696464696e6720666f7220746865204974656d206973207374696c6c20676f696e67206f6e4e4f204e4554464c49582053435245454e53204152452043555252454e544c5920555020464f522053414c4554686973204974656d206973206e6f74206c697374656420666f722061756374696f6e5468652042696464696e6720697320636c6f73656420666f722074686973204974656d41756374696f6e20547970653a2046697273742d7072696365207365616c65642d6269642061756374696f6e57726f6e6720616d6f756e7420706169642e20506c65617365207061792074686520636f727265637420616d6f756e7420746f20636c61696d20796f7572206974656d2e596f7520617265206e6f74207468652077696e6e6572206f66207468652041756374696f6e202141756374696f6e20547970653a20417665726167652070726963652061756374696f6e5468652072657665616c656420626964206973206e6f74207468652073616d6520617320746865206f726967696e616c2062696454686973204974656d206973206e6f74206c697374656420666f722041756374696f6ea265627a7a723158208dfa80357a23f82f8f0c769e514c2908068f29653b80e9e9640d31444a8d9fed64736f6c63430005100032",
  "source": "// SPDX-License-Identifier: MIT\npragma solidity 0.5.16;\n\ncontract Netflix {\n    struct Item{\n        uint listing_id; /** Stores the listing id, which is equal to the number of listed products till date at the time of listing */\n        string name; /** Stores the name of the listed product */\n        string description; /** Stores the desctiption of the listed product */\n        uint price; /** Stores the price of the listed product */\n        uint seller_id; /** Stores the seller_id of the listed product */\n        uint bought; /** Stores if the product has been bought yet. O for No, 1 for Yes */\n        uint delivered; /** Stores if the bought product has been delivered yet. O for No, 1 for Yes */\n        uint buyer_id; /** Stores the buyer_id if the product has been bought*/\n        string buyer_public_key; /** Stores the public key of the buyer if the product has been bought */\n        string encrypted_msg; /** Stores the cipher text encrypted by the Seller using the Buyer's public key if the product has been bought */\n        uint selling_type; /** Stores the type of selling 1:Normal 2:First-price sealed-bid auction 3:Vickrey auction 4:Average Price Auction */\n        uint bidding_closed; /** Stores if the bidding is closed or not */\n        uint reveal_closed; /** Stores if the reveal period is over or not */\n        uint number_of_bids; /** Stores the total number of bids */\n        mapping (uint => bytes32) bids; /** Stores the hashed bids with their corresponding buyer's unique ID */ \n        mapping (uint => uint) revealed_bids;  /** Stores the revealed bids with their corresponding buyer's unique ID */\n    }\n\n    uint private sellers = 0; /**  Stores the number of sellers. This also acts as a key for the reverse mapping of sellers*/\n    uint private buyers = 0; /**  Stores the number of buyers. This also acts as a key for the reverse mapping of buyers*/\n    uint private listed_items = 0; /**  Stores the number of listed items created till date. This also acts as a unique identifier for newly created listed items*/\n\n    mapping (uint => address) private buyers_mapping; /**  This mapping maps a buyer_id (proxy for value of \"buyers\" when the buyer first bought a product) to the address of the buyer's account*/\n    mapping (uint => address payable) private sellers_mapping; /**  This mapping maps a seller_id (proxy for value of \"sellers\" when the seller first listed a product) to the address of the seller's account*/\n\n    mapping (address => uint) private reverse_buyers_mapping; /** This reverse mapping maps the address of a buyer's account to its buyer_id */\n    mapping (address => uint) private reverse_sellers_mapping; /** This reverse mapping maps the address of a seller's account to its seller_id */\n\n    Item[] private listedItems; /** This is a dynamic array of the listed items storing all the information about each item (represented as a struct) */\n\n    /**\n     * This internal pure function takes as input a uint_256 unsigned 256 integer and converts it to a string.\n     * @param _i The integer to be converted to string\n     * @return The string created from the input integer\n     */\n\n    function uint2str(uint256 _i) internal pure returns (string memory str)\n    {\n        if (_i == 0)\n        {\n            return \"0\";\n        }\n        uint256 j = _i;\n        uint256 length;\n        while (j != 0)\n        {\n            length++;\n            j /= 10;\n        }\n        bytes memory bstr = new bytes(length);\n        uint256 k = length;\n        j = _i;\n        while (j != 0)\n        {\n            bstr[--k] = bytes1(uint8(48 + j % 10));\n            j /= 10;\n        }\n        str = string(bstr);\n    }\n\n    /**\n     * This public function is called by the Seller and takes as input the name, description and price of an item and adds it to the list for all the Buyers to see.\n     * @param _name The name of product being listed\n     * @param _description The description of product being listed\n     * @param _price The price of product being listed\n     * @param _selling_type The selling type of the item\n     */\n\n    function listItem(string memory _name, string memory _description, uint _price, uint _selling_type) public\n    {\n        require(_selling_type>=1,\"Invalid Selling Type\");\n        require(_selling_type<=4,\"Invalid Selling Type\");\n        if(reverse_sellers_mapping[msg.sender]==0)\n        {\n            sellers++;\n            reverse_sellers_mapping[msg.sender] = sellers;\n            sellers_mapping[sellers] = address(uint160(msg.sender));\n            listedItems.push(Item(listed_items,_name,_description,_price,sellers,0,0,0,\"NA\",\"NA\",_selling_type,0,0,0));\n            listed_items++;\n        }\n        else\n        {\n            uint temp_seller_id = reverse_sellers_mapping[msg.sender];\n            listedItems.push(Item(listed_items,_name,_description,_price,temp_seller_id,0,0,0,\"NA\",\"NA\",_selling_type,0,0,0));\n            listed_items++;\n        }\n    }\n\n    /**\n     * This public view function lists all the items currently listed along with Listing ID, Name, Description and Price\n     * @return The list is returned\n     */\n\n    function viewAvailItems() public view returns(string memory)\n    {\n        string memory ret = \"\";\n        uint counter= 0;\n        for (uint i=0; i < listedItems.length; i+=1) \n        {\n            Item memory cur = listedItems[i];\n            if (cur.bought == 0 && cur.bidding_closed == 0)\n            {\n                counter++;\n                if(cur.selling_type==1)\n                {\n                    ret = string(abi.encodePacked(ret,\"\\n\\n\",\"**************************\",\"\\n\",\"Listing Id: \",uint2str(cur.listing_id),\"\\n\",\"Name: \",cur.name,\"\\n\",\"Description: \",cur.description,\"\\n\",\"Price: \",uint2str(cur.price)));\n                }\n                else if(cur.selling_type==2)\n                {\n                    ret = string(abi.encodePacked(ret,\"\\n\\n\",\"**************************\",\"\\n\",\"Listing Id: \",uint2str(cur.listing_id),\"\\n\",\"Name: \",cur.name,\"\\n\",\"Description: \",cur.description,\"\\n\",\"Auction Type: First-price sealed-bid auction\"));\n                }\n                else if(cur.selling_type==3)\n                {\n                    ret = string(abi.encodePacked(ret,\"\\n\\n\",\"**************************\",\"\\n\",\"Listing Id: \",uint2str(cur.listing_id),\"\\n\",\"Name: \",cur.name,\"\\n\",\"Description: \",cur.description,\"\\n\",\"Auction Type: Vickrey auction\"));\n                }\n                else if(cur.selling_type==4)\n                {\n                    ret = string(abi.encodePacked(ret,\"\\n\\n\",\"**************************\",\"\\n\",\"Listing Id: \",uint2str(cur.listing_id),\"\\n\",\"Name: \",cur.name,\"\\n\",\"Description: \",cur.description,\"\\n\",\"Auction Type: Average price auction\"));\n                }\n            }\n        }\n        if(counter!=0)\n        {\n            ret = string(abi.encodePacked(ret,\"\\n\",\"***************************\"));\n        }\n        else \n        {\n            ret = \"NO NETFLIX SCREENS ARE CURRENTLY UP FOR SALE\";\n        }\n        return ret;\n    }\n\n    /**\n     * This public payable function is called by a potential Buyer when he wants to buy a specific listed product which are not listed for any auction.\n     * The buyer also gives the price of the prouct in the msg.value while calling which should exactly match with the listed price for a succesful transaction.\n     * The function transfers money (stages it) from the Buyer's account to the Contract's address.\n     * @param listing_id The listing id of the product the buyer is interested in buying.\n     * @param _public_key The public key of the buyer which will then be encrypted by the seller and then decrupted later by the buyer\n     */\n\n    function buyNormalItem(uint listing_id,string memory _public_key) public payable\n    {\n        require(listedItems[listing_id].selling_type==1,\"This Item is listed for auction\");\n        require(msg.value==listedItems[listing_id].price,\"Wrong amount paid. Please pay the correct amount to claim your item.\");\n        if(reverse_buyers_mapping[msg.sender]==0)\n        {\n            buyers++;\n            reverse_buyers_mapping[msg.sender] = buyers;\n            buyers_mapping[buyers] = msg.sender;\n            listedItems[listing_id].bought = 1;\n            listedItems[listing_id].buyer_public_key = _public_key;\n            listedItems[listing_id].buyer_id = buyers;\n        }\n        else\n        {\n            listedItems[listing_id].bought = 1;\n            listedItems[listing_id].buyer_public_key = _public_key;\n            listedItems[listing_id].buyer_id = reverse_buyers_mapping[msg.sender];\n        }\n    }\n    \n    function get_hash(uint bid) pure public returns(bytes32)\n    {\n        return keccak256(abi.encodePacked(bid));\n    }\n\n    /**\n    * This public function is called by a potential Buyer when he wants to place a bid for a specific listed product.\n    * The buyer gives a hashed value of the bid while calling the function in addition to the listing_id of the specific product\n    * @param listing_id The listing id of the product the buyer is interested in buying.\n    * @param hashed_bid The hash of bid the buyer wants to make\n    */\n\n    function place_bid(uint listing_id, bytes32 hashed_bid) public\n    {\n        require(listedItems[listing_id].selling_type>1,\"This Item is not listed for Auction\");\n        require(listedItems[listing_id].bidding_closed==0,\"The Bidding is closed for this Item\");\n        require(listedItems[listing_id].bids[reverse_buyers_mapping[msg.sender]]==0,\"Bidder already has a bid\");\n        if(reverse_buyers_mapping[msg.sender]==0)\n        {\n            buyers++;\n            reverse_buyers_mapping[msg.sender] = buyers;\n            buyers_mapping[buyers] = msg.sender;\n            listedItems[listing_id].number_of_bids++;\n            listedItems[listing_id].bids[buyers]=hashed_bid;\n        }\n        else\n        {\n            listedItems[listing_id].number_of_bids++;\n            listedItems[listing_id].bids[reverse_buyers_mapping[msg.sender]]=hashed_bid;\n        }\n    }\n\n    /**\n    * This public function is called by the Seller when he wants to close biding for a specific listed product.\n    * @param listing_id The listing id of the product the buyer is interested in buying.\n    */\n\n    function close_bidding(uint listing_id) public\n    {\n        require(listedItems[listing_id].selling_type>1,\"This Item is not listed for Auction\");\n        require(reverse_sellers_mapping[msg.sender]!=0,\"You are not a seller\");\n        require(listedItems[listing_id].seller_id==reverse_sellers_mapping[msg.sender],\"Item is not listed by you\");\n        listedItems[listing_id].bidding_closed=1;\n    }\n\n    /**\n     * This public function is called by a Buyer when he wants to reveal the actual bid for a specific listed product.\n     * The buyer gives the actual bid value while calling the function in addition to the listing_id of the specific product\n     * @param listing_id The listing id of the product the buyer is interested in buying.\n     * @param bid The hash of bid the buyer wants to make\n     */\n\n    function reveal_bid(uint listing_id, uint bid) public\n    {\n        require(listedItems[listing_id].selling_type>1,\"This Item is not listed for Auction\");\n        require(listedItems[listing_id].bidding_closed==1,\"Bidding is still going on\");\n        require(listedItems[listing_id].reveal_closed==0,\"Reveal Period is closed\");\n        require(reverse_buyers_mapping[msg.sender]!=0,\"You are not a Buyer\");\n        require(keccak256(abi.encodePacked(bid)) == listedItems[listing_id].bids[reverse_buyers_mapping[msg.sender]],\"The revealed bid is not the same as the original bid\");\n        listedItems[listing_id].revealed_bids[reverse_buyers_mapping[msg.sender]]=bid;\n    }\n\n    /**\n    * This public function is called by the Seller when he wants to end revealing period for a specific listed product.\n    * This function also calculates the winner and payable amount of the auction\n    * @param listing_id The listing id of the product the buyer is interested in buying.\n    */\n\n    function close_revealing(uint listing_id) public\n    {\n        require(listedItems[listing_id].selling_type>1,\"This Item is not listed for Auction\");\n        require(reverse_sellers_mapping[msg.sender]!=0,\"You are not a seller\");\n        require(listedItems[listing_id].seller_id==reverse_sellers_mapping[msg.sender],\"Item is not listed by you\");\n        require(listedItems[listing_id].bidding_closed==1,\"Bidding for the Item is still going on\");\n        listedItems[listing_id].reveal_closed=1;\n\n        // find the winner and find the winners payable amount\n        if(listedItems[listing_id].selling_type==2)\n        {\n            uint iterator;\n            uint highest=0;\n            for(iterator=1;iterator<=buyers;iterator++)\n            {\n                if(listedItems[listing_id].revealed_bids[iterator]>highest)\n                {\n                    highest = listedItems[listing_id].revealed_bids[iterator];\n                    listedItems[listing_id].buyer_id = iterator;\n                }\n            }\n            listedItems[listing_id].price = highest;\n        }\n        else if(listedItems[listing_id].selling_type==3)\n        {\n            uint iterator;\n            uint highest=0;\n            uint second_highest=0;\n            for(iterator=1;iterator<=buyers;iterator++)\n            {\n                if(listedItems[listing_id].revealed_bids[iterator]>highest)\n                {\n                    second_highest = highest;\n                    highest = listedItems[listing_id].revealed_bids[iterator];\n                    listedItems[listing_id].buyer_id = iterator;\n                }\n                else if(listedItems[listing_id].revealed_bids[iterator]>second_highest)\n                {\n                    second_highest = listedItems[listing_id].revealed_bids[iterator];\n                }\n            }\n            listedItems[listing_id].price = second_highest;\n        }\n        else if(listedItems[listing_id].selling_type==4)\n        {\n            uint iterator;\n            uint sum=0;\n            uint count=0;\n            uint average;\n            for(iterator=1;iterator<=buyers;iterator++)\n            {\n                if(listedItems[listing_id].revealed_bids[iterator]>0)\n                {\n                    sum+=listedItems[listing_id].revealed_bids[iterator];\n                    count++;\n                }\n            }\n            average = sum/count;\n\n            uint min_distance = 10000000000000000000000000;\n            uint temp_distance;\n            for(iterator=1;iterator<=buyers;iterator++)\n            {\n                if(listedItems[listing_id].revealed_bids[iterator]>0)\n                {\n                    if(listedItems[listing_id].revealed_bids[iterator]-average>=0)\n                    {\n                        temp_distance = listedItems[listing_id].revealed_bids[iterator]-average;\n                    }\n                    else\n                    {\n                        temp_distance = average - listedItems[listing_id].revealed_bids[iterator];\n                    }\n\n                    if(temp_distance<min_distance)\n                    {\n                        min_distance=temp_distance;\n                        listedItems[listing_id].buyer_id = iterator;\n                        listedItems[listing_id].price = listedItems[listing_id].revealed_bids[iterator];\n                    }\n                }\n            }\n        }\n    }\n\n    /**\n    * This public function is called by a Buyer when he wants to know the winner of the auction of a specific product.\n    * @param listing_id The listing id of the product the buyer is interested in buying.\n    */\n\n    function get_winner(uint listing_id) view public returns(address)\n    {\n        require(listedItems[listing_id].selling_type>1,\"This Item is not listed for Auction\");\n        require(listedItems[listing_id].bidding_closed==1,\"Bidding is still going on\");\n        require(listedItems[listing_id].reveal_closed==1,\"Reveal Period is still going on\");\n        return buyers_mapping[listedItems[listing_id].buyer_id];\n    }\n\n    /**\n    * This public function is called by a Buyer when he wants to know the payable amount of the auction of a specific product.\n    * @param listing_id The listing id of the product the buyer is interested in buying.\n    */\n\n    function get_payable_amount(uint listing_id) view public returns(uint)\n    {\n        require(listedItems[listing_id].selling_type>1,\"This Item is not listed for Auction\");\n        require(listedItems[listing_id].bidding_closed==1,\"Bidding is still going on\");\n        require(listedItems[listing_id].reveal_closed==1,\"Reveal Period is still going on\");\n        return listedItems[listing_id].price;\n    }\n\n    /**\n    * This public payable function is called by a potential Buyer when he wants to buy a specific listed product which was listed for an Auction.\n    * The buyer also gives the price of the prouct in the msg.value while calling which should exactly match with the listed price for a succesful transaction.\n    * The function transfers money (stages it) from the Buyer's account to the Contract's address.\n    * @param listing_id The listing id of the product the buyer is interested in buying.\n    * @param _public_key The public key of the buyer which will then be encrypted by the seller and then decrupted later by the buyer\n    */\n\n    function buyAuctionItem(uint listing_id, string memory _public_key) public payable\n    {\n        require(listedItems[listing_id].selling_type>1,\"This Item is not listed for auction\");\n        require(listedItems[listing_id].bidding_closed==1,\"Bidding is still going on\");\n        require(listedItems[listing_id].reveal_closed==1,\"Reveal Period is still going on\");\n        require(msg.sender==buyers_mapping[listedItems[listing_id].buyer_id],\"You are not the winner of the Auction !\");\n        require(msg.value==listedItems[listing_id].price,\"Wrong amount paid. Please pay the correct amount to claim your item.\");\n        listedItems[listing_id].bought=1;\n        listedItems[listing_id].buyer_public_key=_public_key;\n    }\n\n    /**\n     * This public view function is called by the Seller of the listed product which was just bought to retrieve the public key of the Buyer to encrypt Password with.\n     * @param listing_id The listing id of the product the buyer just bought.\n     * @return The public key of the buyer\n     */\n\n    function get_public_key(uint listing_id) public view returns(string memory)\n    {\n        require(reverse_sellers_mapping[msg.sender]!=0,\"You are not a seller\");\n        require(listedItems[listing_id].seller_id==reverse_sellers_mapping[msg.sender],\"Item is not listed by you\");\n        require(listedItems[listing_id].bought==1,\"Item not bought yet\");\n        string memory ret = listedItems[listing_id].buyer_public_key;\n        \n        return ret;\n    }\n\n    /**\n     * This public payable function is called by the Seller of the listed product.\n     * This function takes in the cipher text created by the Seller and then transfers the Price of the product from the Contract's address to the Seller.\n     * @param message The encrypted cipher text created using the sensitive message and Buyer's public key.\n     * @param listing_id The listing id of the product the buyer just bought.\n     */\n\n    function send_encrypted_string(string memory message,uint listing_id) public payable\n    {\n        require(reverse_sellers_mapping[msg.sender]!=0,\"You are not a seller\");\n        require(listedItems[listing_id].seller_id==reverse_sellers_mapping[msg.sender],\"Item is not listed by you\");\n        require(listedItems[listing_id].bought==1,\"Item not bought yet\");\n        listedItems[listing_id].encrypted_msg = message;\n        listedItems[listing_id].delivered = 1;\n        sellers_mapping[listedItems[listing_id].seller_id].transfer(listedItems[listing_id].price);\n    } \n\n    /**\n     * This public view function is called by the Buyer of the listed product.\n     * This function returns the cipher text to the Buyer.\n     * @param listing_id The listing id of the product the buyer just bought.\n     * @return The cipher text created by the Seller.\n     */\n\n    function get_encrypted_string(uint listing_id) public view returns(string memory)\n    {\n        require(reverse_buyers_mapping[msg.sender]!=0,\"You are not a Buyer\");\n        require(listedItems[listing_id].buyer_id==reverse_buyers_mapping[msg.sender],\"Item is not bought by you\");\n        require(listedItems[listing_id].bought==1,\"Item not bought yet\");\n        require(listedItems[listing_id].delivered==1,\"Item not delivered yet\");\n        string memory ret = listedItems[listing_id].encrypted_msg;\n        return ret;\n    }\n}\n",
  "sourcePath": "/workspaces/dice-game-dapp/contracts/Netflix.sol",
  "compiler": {
    "name": "solc",
    "version": "0.5.16+commit.9c3226ce.Emscripten.clang"
  },
  "schemaVersion": "3.4.3",
  "updatedAt": "2021-10-09T16:57:22.342Z",
  "networkType": "ethereum",
  "devdoc": {
    "methods": {
      "buyAuctionItem(uint256,string)": {
        "params": {
          "_public_key": "The public key of the buyer which will then be encrypted by the seller and then decrupted later by the buyer",
          "listing_id": "The listing id of the product the buyer is interested in buying."
        }
      },
      "buyNormalItem(uint256,string)": {
        "params": {
          "_public_key": "The public key of the buyer which will then be encrypted by the seller and then decrupted later by the buyer",
          "listing_id": "The listing id of the product the buyer is interested in buying."
        }
      },
      "close_bidding(uint256)": {
        "params": {
          "listing_id": "The listing id of the product the buyer is interested in buying."
        }
      },
      "close_revealing(uint256)": {
        "params": {
          "listing_id": "The listing id of the product the buyer is interested in buying."
        }
      },
      "get_encrypted_string(uint256)": {
        "params": {
          "listing_id": "The listing id of the product the buyer just bought."
        },
        "return": "The cipher text created by the Seller."
      },
      "get_payable_amount(uint256)": {
        "params": {
          "listing_id": "The listing id of the product the buyer is interested in buying."
        }
      },
      "get_public_key(uint256)": {
        "params": {
          "listing_id": "The listing id of the product the buyer just bought."
        },
        "return": "The public key of the buyer"
      },
      "get_winner(uint256)": {
        "params": {
          "listing_id": "The listing id of the product the buyer is interested in buying."
        }
      },
      "listItem(string,string,uint256,uint256)": {
        "params": {
          "_description": "The description of product being listed",
          "_name": "The name of product being listed",
          "_price": "The price of product being listed",
          "_selling_type": "The selling type of the item"
        }
      },
      "place_bid(uint256,bytes32)": {
        "params": {
          "hashed_bid": "The hash of bid the buyer wants to make",
          "listing_id": "The listing id of the product the buyer is interested in buying."
        }
      },
      "reveal_bid(uint256,uint256)": {
        "params": {
          "bid": "The hash of bid the buyer wants to make",
          "listing_id": "The listing id of the product the buyer is interested in buying."
        }
      },
      "send_encrypted_string(string,uint256)": {
        "params": {
          "listing_id": "The listing id of the product the buyer just bought.",
          "message": "The encrypted cipher text created using the sensitive message and Buyer's public key."
        }
      },
      "viewAvailItems()": {
        "return": "The list is returned"
      }
    }
  },
  "userdoc": {
    "methods": {
      "buyAuctionItem(uint256,string)": {
        "notice": "This public payable function is called by a potential Buyer when he wants to buy a specific listed product which was listed for an Auction. The buyer also gives the price of the prouct in the msg.value while calling which should exactly match with the listed price for a succesful transaction. The function transfers money (stages it) from the Buyer's account to the Contract's address."
      },
      "buyNormalItem(uint256,string)": {
        "notice": "This public payable function is called by a potential Buyer when he wants to buy a specific listed product which are not listed for any auction. The buyer also gives the price of the prouct in the msg.value while calling which should exactly match with the listed price for a succesful transaction. The function transfers money (stages it) from the Buyer's account to the Contract's address."
      },
      "close_bidding(uint256)": {
        "notice": "This public function is called by the Seller when he wants to close biding for a specific listed product."
      },
      "close_revealing(uint256)": {
        "notice": "This public function is called by the Seller when he wants to end revealing period for a specific listed product. This function also calculates the winner and payable amount of the auction"
      },
      "get_encrypted_string(uint256)": {
        "notice": "This public view function is called by the Buyer of the listed product. This function returns the cipher text to the Buyer."
      },
      "get_payable_amount(uint256)": {
        "notice": "This public function is called by a Buyer when he wants to know the payable amount of the auction of a specific product."
      },
      "get_public_key(uint256)": {
        "notice": "This public view function is called by the Seller of the listed product which was just bought to retrieve the public key of the Buyer to encrypt Password with."
      },
      "get_winner(uint256)": {
        "notice": "This public function is called by a Buyer when he wants to know the winner of the auction of a specific product."
      },
      "listItem(string,string,uint256,uint256)": {
        "notice": "This public function is called by the Seller and takes as input the name, description and price of an item and adds it to the list for all the Buyers to see."
      },
      "place_bid(uint256,bytes32)": {
        "notice": "This public function is called by a potential Buyer when he wants to place a bid for a specific listed product. The buyer gives a hashed value of the bid while calling the function in addition to the listing_id of the specific product"
      },
      "reveal_bid(uint256,uint256)": {
        "notice": "This public function is called by a Buyer when he wants to reveal the actual bid for a specific listed product. The buyer gives the actual bid value while calling the function in addition to the listing_id of the specific product"
      },
      "send_encrypted_string(string,uint256)": {
        "notice": "This public payable function is called by the Seller of the listed product. This function takes in the cipher text created by the Seller and then transfers the Price of the product from the Contract's address to the Seller."
      },
      "viewAvailItems()": {
        "notice": "This public view function lists all the items currently listed along with Listing ID, Name, Description and Price"
      }
    }
  }
}